:100000000C9462000C948A000C948A000C948A0070
:100010000C948A000C948A000C948A000C948A0038
:100020000C948A000C948A000C948A000C948A0028
:100030000C948A000C948A000C948A000C948A0018
:100040000C94B8010C948A000C948A000C948A00D9
:100050000C948A000C948A000C948A000C948A00F8
:100060000C948A000C948A000000000024002700F1
:100070002A0000000000250028002B0000000000DE
:1000800023002600290004040404040404040202DA
:100090000202020203030303030301020408102007
:1000A0004080010204081020010204081020000012
:1000B0000007000201000003040600000000000029
:1000C00000008D0011241FBECFEFD8E0DEBFCDBFF2
:1000D00011E0A0E0B1E0ECE2F6E002C005900D9284
:1000E000A030B107D9F711E0A0E0B1E001C01D9246
:1000F000AD34B107E1F710E0C4ECD0E004C02297C2
:10010000FE010E941003C23CD107C9F70E94D80229
:100110000C9414030C94000008958BE090E09093ED
:1001200001018093000189E090E0909303018093A6
:1001300002018AE090E090930501809304018DE034
:1001400090E090930701809306018BE061E00E94AC
:1001500045028091020161E00E9445028091040104
:1001600061E00E9445028091060161E00E94450223
:1001700080E58CBD8091020160E00E948402809144
:10018000040160E00E948402EEE0F1E0118210823E
:100190001382128215821482369681E0E434F807C5
:1001A000A9F70895EF92FF920F931F93DF93CF93D8
:1001B000CDB7DEB762970FB6F894DEBF0FBECDBFE6
:1001C0001E821D821C821B828FEF90E09A8389839E
:1001D0001C861B869A87898718861F829A8B898B33
:1001E000188A1F861E861D860EE011E020E030E092
:1001F0007E010894E11CF11CC90163E070E00E94DB
:10020000E702FC01EE0FFF1FE80FF91FEE0FFF1FC3
:10021000D801EE0DFF1D86E001900D928150E1F7AF
:100220002F5F3F4F0A5F1F4F2930310529F7EEE05E
:10023000F1E0A081B1816281738144815581CA015D
:1002400024E0959587952A95E1F78EBD0DB407FEBC
:10025000FDCFCD0106E0959587950A95E1F79A01C6
:1002600014E0220F331F1A95E1F7822B8EBD0DB4D7
:1002700007FEFDCF872F992787FD9A959D01220FB5
:10028000331F220F331F822B8EBD0DB407FEFDCF0F
:100290006EBD0DB407FEFDCF369681E0E434F8075D
:1002A00041F650930D0140930C0170930B01609344
:1002B0000A01B0930901A09308018FE090E00E9429
:1002C00000028091020161E00E9484028FE090E0D0
:1002D0000E9400028091020160E00E94840280E09E
:1002E00090E056E441E430EE24E65EBD0DB407FE36
:1002F000FDCF4EBD0DB407FEFDCF3EBD0DB407FED4
:10030000FDCF2EBD0DB407FEFDCF019689309105BE
:1003100061F784E690E090930D0180930C01909337
:100320000B0180930A0188E790E090930901809384
:1003300008018FE090E00E9400028091020161E0DC
:100340000E9484028FE090E00E94000280910201EE
:1003500060E00E94840262960FB6F894DEBF0FBE82
:10036000CDBFCF91DF911F910F91FF90EF90089536
:100370001F920F920FB60F9211242F933F938F93DA
:100380009F93AF93BF938091480190914901A091B1
:100390004A01B0914B0130914C010196A11DB11D54
:1003A000232F2D5F2D3720F02D570196A11DB11D54
:1003B00020934C018093480190934901A0934A01F6
:1003C000B0934B018091440190914501A091460169
:1003D000B09147010196A11DB11D809344019093F6
:1003E0004501A0934601B0934701BF91AF919F9102
:1003F0008F913F912F910F900FBE0F901F901895E6
:10040000019739F0880F991F880F991F029701975C
:10041000F1F70895789484B5826084BD84B58160D5
:1004200084BD85B5826085BD85B5816085BDEEE6FC
:10043000F0E0808181608083E1E8F0E010828081DB
:1004400082608083808181608083E0E8F0E0808149
:1004500081608083E1EBF0E0808184608083E0EB69
:10046000F0E0808181608083EAE7F0E08081846051
:1004700080838081826080838081816080838081AD
:10048000806880831092C1000895CF93DF93482F36
:1004900050E0CA0186569F4FFC0134914A575F4F86
:1004A000FA018491882369F190E0880F991FFC017B
:1004B000E859FF4FA591B491FC01EE58FF4FC5914B
:1004C000D491662351F42FB7F8948C91932F909583
:1004D00089238C93888189230BC0623061F42FB704
:1004E000F8948C91932F909589238C938881832BFA
:1004F00088832FBF06C09FB7F8948C91832B8C9371
:100500009FBFDF91CF910895482F50E0CA018255D7
:100510009F4FFC012491CA0186569F4FFC01949184
:100520004A575F4FFA013491332309F440C0222324
:1005300051F1233071F0243028F42130A1F0223021
:1005400011F514C02630B1F02730C1F02430D9F4B1
:1005500004C0809180008F7703C0809180008F7DE0
:100560008093800010C084B58F7702C084B58F7DE2
:1005700084BD09C08091B0008F7703C08091B00026
:100580008F7D8093B000E32FF0E0EE0FFF1FEE5859
:10059000FF4FA591B4912FB7F894662321F48C9165
:1005A0009095892302C08C91892B8C932FBF08953D
:1005B000CF93DF930E940A020E94D200C0E0D0E0F5
:1005C0000E948C002097E1F30E940000F9CF97FB76
:1005D000092E07260AD077FD04D00CD006D00020C3
:1005E0001AF4709561957F4F0895F6F7909581956F
:1005F0009F4F0895AA1BBB1B51E107C0AA1FBB1F39
:10060000A617B70710F0A61BB70B881F991F5A959E
:10061000A9F780959095BC01CD010895EE0FFF1FBD
:0C0620000590F491E02D0994F894FFCFB0
:00000001FF
