:100000000C9462000C948A000C948A000C948A0070
:100010000C948A000C948A000C948A000C948A0038
:100020000C948A000C948A000C948A000C948A0028
:100030000C948A000C948A000C948A000C948A0018
:100040000C941F020C948A000C948A000C948A0071
:100050000C948A000C948A000C948A000C948A00F8
:100060000C948A000C948A000000000024002700F1
:100070002A0000000000250028002B0000000000DE
:1000800023002600290004040404040404040202DA
:100090000202020203030303030301020408102007
:1000A0004080010204081020010204081020000012
:1000B0000007000201000003040600000000000029
:1000C00000008D0011241FBECFEFD8E0DEBFCDBFF2
:1000D00011E0A0E0B1E0EEE5F7E002C005900D927E
:1000E000A030B107D9F711E0A0E0B1E001C01D9246
:1000F000AD34B107E1F710E0C4ECD0E004C02297C2
:10010000FE010E94A903C23CD107C9F70E949803CF
:100110000C94AD030C9400000895CF92DF92EF92FF
:10012000FF920F931F93E8E0F1E011821082138297
:10013000128215821482369681E0EE33F807A9F711
:100140008BE090E090930101809300018F010C53AC
:10015000104089E090E0D8018D939C9396ECE92EB5
:100160009FEFF92EEE0EFF1E8AE090E0D7018D93EF
:100170009C9388ECC82E8FEFD82ECE0EDF1E8DE01C
:1001800090E0F601918380838BE061E00E9405039B
:10019000D8018C9161E00E940503F701808161E044
:1001A0000E940503D6018C9161E00E94050380E561
:1001B0008CBDF801808160E00E944403D7018C91DE
:1001C00060E00E9444031F910F91FF90EF90DF9039
:1001D000CF900895DF92EF92FF920F931F93CF93EA
:1001E000DF93EC01FC0110E4E12EF12CE80EF91E86
:1001F0008C010E5B1F4FBC016A5C7F4F828593852B
:1002000044855585208531853FAF2EAFD7018D932D
:100210009C93D8014D935C93CA01B4E09595879562
:10022000BA95E1F78EBD0DB407FEFDCF2EAD3FAD03
:10023000C901A6E095958795AA95E1F794E0440F4A
:10024000551F9A95E1F7842B8EBD0DB407FEFDCFA7
:10025000D7014D915C91852F992787FD9A95220FA3
:10026000331F220F331F822B8EBD0DB407FEFDCF2F
:100270004EBD0DB407FEFDCF3696E617F70709F021
:10028000BDCF8FE090E00E94C0028A8161E00E94B1
:1002900044038FE090E00E94C0028A8160E00E94E7
:1002A000440360E070E0E8E7EE2EF12CFE01E05C34
:1002B000FF4F04E610E0DE01AE5BBF4F56E4D52EE3
:1002C000FFAEEEAE1183008311961C930E93DEBC3D
:1002D0000DB407FEFDCF2EAD3FADC90146E09595AB
:1002E00087954A95E1F780648EBD0DB407FEFDCF7A
:1002F00040815181852F992787FD9A95220F331FC1
:10030000220F331F822B8EBD0DB407FEFDCF4EBDD5
:100310000DB407FEFDCF6F5F7F4F6930710581F629
:100320008FE090E00E94C0028A8161E00E94440355
:100330008FE090E00E94C0028A8160E00E94440346
:10034000DF91CF911F910F91FF90EF90DF90089573
:10035000AF92BF92CF92DF92EF92FF920F931F93D3
:10036000CF93DF93C8E0D1E036E3A32EB12CAC0EDF
:10037000BD1E2FEFC22ED12C2EC0F801118210828B
:1003800013821282158214820A5F1F4FA016B106D3
:10039000A1F792ECE92E9FEFF92EE00EF11EC701B6
:1003A0000E94EA001D821C82DB82CA8219821882A6
:1003B000C7010E94EA0068EC70E080E090E00E94D3
:1003C000670226960C171D0731F4E701E8968FEFB8
:1003D000E82EF12C26C008E011E0CFCF1182108268
:1003E00013821282158214823696E017F107B1F754
:1003F00080E091E00E94EA001D821C82FB82EA827A
:100400001982188280E091E00E94EA0068EC70E0B6
:1004100080E090E00E9467022697F1E0C230DF079B
:1004200019F0E8E0F1E0DACFDF91CF911F910F9161
:10043000FF90EF90DF90CF90BF90AF9008951F9204
:100440000F920FB60F9211242F933F938F939F9388
:10045000AF93BF938091480190914901A0914A01C7
:10046000B0914B0130914C010196A11DB11D232F7C
:100470002D5F2D3720F02D570196A11DB11D209322
:100480004C018093480190934901A0934A01B09395
:100490004B018091440190914501A0914601B0919A
:1004A00047010196A11DB11D809344019093450120
:1004B000A0934601B0934701BF91AF919F918F9157
:1004C0003F912F910F900FBE0F901F9018959B0199
:1004D000AC017FB7F8948091440190914501A091BF
:1004E0004601B091470166B5A89B05C06F3F19F062
:1004F0000196A11DB11D7FBFBA2FA92F982F882764
:10050000860F911DA11DB11D62E0880F991FAA1FC2
:10051000BB1F6A95D1F7BC012DC0FFB7F89480913D
:10052000440190914501A0914601B0914701E6B583
:10053000A89B05C0EF3F19F00196A11DB11DFFBF9B
:10054000BA2FA92F982F88278E0F911DA11DB11D9D
:10055000E2E0880F991FAA1FBB1FEA95D1F7861BFF
:10056000970B885E9340C8F2215030404040504085
:1005700068517C4F211531054105510571F60895EB
:10058000019739F0880F991F880F991F02970197DB
:10059000F1F70895789484B5826084BD84B5816054
:1005A00084BD85B5826085BD85B5816085BDEEE67B
:1005B000F0E0808181608083E1E8F0E0108280815A
:1005C00082608083808181608083E0E8F0E08081C8
:1005D00081608083E1EBF0E0808184608083E0EBE8
:1005E000F0E0808181608083EAE7F0E080818460D0
:1005F000808380818260808380818160808380812C
:10060000806880831092C1000895CF93DF93482FB4
:1006100050E0CA0186569F4FFC0134914A575F4F04
:10062000FA018491882369F190E0880F991FFC01F9
:10063000E859FF4FA591B491FC01EE58FF4FC591C9
:10064000D491662351F42FB7F8948C91932F909501
:1006500089238C93888189230BC0623061F42FB782
:10066000F8948C91932F909589238C938881832B78
:1006700088832FBF06C09FB7F8948C91832B8C93EF
:100680009FBFDF91CF910895482F50E0CA01825556
:100690009F4FFC012491CA0186569F4FFC01949103
:1006A0004A575F4FFA013491332309F440C02223A3
:1006B00051F1233071F0243028F42130A1F02230A0
:1006C00011F514C02630B1F02730C1F02430D9F430
:1006D00004C0809180008F7703C0809180008F7D5F
:1006E0008093800010C084B58F7702C084B58F7D61
:1006F00084BD09C08091B0008F7703C08091B000A5
:100700008F7D8093B000E32FF0E0EE0FFF1FEE58D7
:10071000FF4FA591B4912FB7F894662321F48C91E3
:100720009095892302C08C91892B8C932FBF0895BB
:10073000CF93DF930E94CA020E948C00C0E0D0E0F9
:100740000E94A8012097E1F30E940000F9CFEE0F6C
:0E075000FF1F0590F491E02D0994F894FFCF5F
:00000001FF
